:100000000C942A000C9447000C9447000C94470071
:100010000C9479040C9447000C9447000C9447000E
:100020000C9447000C9447000C9422040C94470055
:100030000C9447000C9447000C9447000C94470024
:100040000C9447000C9447000C9447000C94470014
:100050000C94470011241FBECFE5D8E0DEBFCDBF12
:1000600010E0A0E6B0E0E4E7FCE002C005900D92ED
:10007000AE37B107D9F720E0AEE7B0E001C01D927E
:10008000A739B207E1F70E94E9020C9438060C94F4
:100090000000413091F018F0423039F10895E82F16
:1000A000F0E0EE0FFF1FE859FF4F0190F081E02DC7
:1000B0008081609568236083089590E0880F991F80
:1000C000FC01E859FF4F0190F081E02D2081362F8F
:1000D000309523232083FC01E05AFF4F0190F081EB
:1000E000E02D8081682B60830895E82FF0E0EE0F0B
:1000F000FF1FE859FF4F0190F081E02D8081682BB0
:1001000060830895442319F0413079F00895E82F71
:10011000F0E0EE0FFF1FE05AFF4F0190F081E02D5D
:1001200080816095682360830895E82FF0E0EE0FEA
:10013000FF1FE05AFF4F0190F081E02D8081682B76
:1001400060830895CF93C82F40E062E081E00E9471
:10015000820040E064E081E00E948200C4FB44270A
:1001600040F960E180E00E948200C5FB442740F92D
:1001700060E280E00E948200C6FB442740F960E410
:1001800080E00E9482004C2F441F4427441F60E8F7
:1001900080E00E94820040E068E081E00E948200EE
:1001A00080E18A95F1F700C041E068E081E00E94BB
:1001B00082004C2F417060E180E00E948200C1FB10
:1001C000442740F960E280E00E948200C2FB44279D
:1001D00040F960E480E00E948200C3FB442740F9BC
:1001E00060E880E00E94820040E068E081E00E94D8
:1001F000820080E18A95F1F700C041E068E081E08B
:100200000E948200CF910895CF93C82F41E062E011
:1002100081E00E94820040E064E081E00E94820070
:10022000C4FB442740F960E180E00E948200C5FBE6
:10023000442740F960E280E00E948200C6FB442728
:1002400040F960E480E00E9482004C2F441F442764
:10025000441F60E880E00E94820040E068E081E0A6
:100260000E94820080E18A95F1F700C041E068E0D9
:1002700081E00E9482004C2F417060E180E00E948A
:100280008200C1FB442740F960E280E00E948200C6
:10029000C2FB442740F960E480E00E948200C3FB77
:1002A000442740F960E880E00E94820040E068E076
:1002B00081E00E94820080E18A95F1F700C041E070
:1002C00068E081E00E948200CF91089542E06EE0F4
:1002D00081E00E94490042E060EF80E00E94490016
:1002E00041E068E081E00E94820083ED90E30197A5
:1002F000F1F700C0000040E060E180E00E94820071
:1003000041E060E280E00E94820040E060E480E042
:100310000E94820040E060E880E00E94820040E0AD
:1003200068E081E00E94820090E19A95F1F700C0B8
:1003300041E068E081E00E9482008CE20E94A2001D
:1003400089EF90E00197F1F700C000008FE00E9474
:10035000A20089EF90E00197F1F700C0000081E072
:100360000E94A20083EF91E00197F1F700C0000026
:1003700086E00E94A20089EF90E00197F1F700C0AB
:10038000000008950E9404010895CF93DF93EC01CB
:1003900003C00E940401219688818111FACFDF9168
:1003A000CF910895882319F0813031F0089580E8C5
:1003B000860F0E94A200089580EC860F0E94A20082
:1003C0000895EF92FF920F931F93CF93DF93EC0169
:1003D0007C01F694E794F694E794F694E7949701F9
:1003E000A5ECB0E20E9429068C01129502950F70CF
:1003F00001271F70012780E3800F0E94C20128EEB1
:1004000033E0029FC001039F900D129F900D1124B5
:10041000C81BD90B7E01F694E794F694E7949701F4
:10042000ABE7B4E10E9429068C011695079580E39D
:10043000800F0E94C20124E6209FC001219F900DE1
:100440001124C81BD90B9E01ADECBCEC0E942906FF
:100450008C0116950795169507951695079580E3D7
:10046000800F0E94C201C801880F991F000F111F41
:10047000000F111F000F111F080F191FCE01801B45
:10048000910B805D0E94C201DF91CF911F910F916E
:10049000FF90EF900895CF93DF93D82FCDEC8C9FF2
:1004A000C12D1124C695C695C69580E38C0F0E9478
:1004B000C201CC0F8C2F880F880FC80F8D2F8C1B7B
:1004C000805D0E94C201DF91CF910895CF92DF92AB
:1004D000EF92FF920F931F93CF93DF93C82FD62FE6
:1004E00069017A0160E080E00E94D20180E790E03B
:1004F0000E94C501C6010E94E10166E080E00E9401
:10050000D20183E790E00E94C5018D2F90E00E9408
:10051000E1016CE080E00E94D20186E790E00E9459
:10052000C5018C2F0E944B0260E081E00E94D20145
:100530006C2F70E080E090E00E947B0520E030E0CE
:1005400040E251E40E94D1040E9443056B017C010A
:10055000EB0100E010E006C089E790E00E94C501D1
:100560000F5F1F4F0C171D07BCF307C08BE790E010
:100570000E94C5018FEFC81AD80A8AE0C816D104B4
:10058000ACF30AE010E006C089E790E00E94C501E4
:100590000F5F1F4F7E018AE0E80EF11C0E151F054C
:1005A0009CF3670107C08BE790E00E94C5018FEFC5
:1005B000C81AD80ACE018E0D9F1DC816D9069CF305
:1005C000DF91CF911F910F91FF90EF90DF90CF902F
:1005D0000895CF93DF9300D000D000D0CDB7DEB721
:1005E00042E060E883E00E94490040E060E483E08C
:1005F0000E94490042E068E670E082E00E945703F2
:1006000043E060E070E081E00E9457030E946601D1
:1006100082E00E94920360E582E00E948403AE01C2
:100620004E5F5F4FBE016D5F7F4FCE0101960E940E
:10063000A4032B813C814D815E816A8189810E9466
:10064000660287EA91E60197F1F700C00000F1CF5A
:10065000813059F018F0823091F0089512BE93B7AE
:1006600080919600892B83BF08951DBC1CBC8EB55C
:100670009FB520919500822B9FBD8EBD089514BC1F
:1006800085B596B520919400822B96BD85BD0895C1
:10069000882319F0813029F0089583B7887F83BFBC
:1006A00008958EB59FB5887F9FBD8EBD089581301A
:1006B00081F018F08230D1F008956836710529F480
:1006C000433318F0425360E670E063BF40939600F6
:1006D00008956836710529F4433318F0425360E6F3
:1006E00070E07FBD6EBD409395000895683671053A
:1006F00029F4433318F0425360E670E0772776BD63
:1007000065BD409394000895813031F018F0823037
:1007100039F008956CBF089570E07BBD6ABD0895FF
:1007200063BD0895813041F018F0823049F008959A
:1007300080E00E942803089581E00E942803089524
:1007400082E00E94280308958F929F92AF92BF92F9
:10075000CF92DF92EF92FF920F931F93CF93DF938D
:1007600000D000D000D0CDB7DEB77C018B016A018C
:10077000FE01319686E0DF011D928A95E9F78EB57C
:100780009FB580649FBD8EBD81E00E94280380E0FC
:100790001BC008B605FEFDCFE82FF0E026B537B543
:1007A000EE0FFF1F41E050E04C0F5D1FE40FF51FFF
:1007B0003183208398B7906298BF2EB53FB550E43F
:1007C00025273FBD2EBD8F5F833018F381E00E9447
:1007D00048032B813C8189819A81281B390B8D80AC
:1007E0009E80881A990AD6018C92A4E6B0E00E94F5
:1007F0002906A12CB12CA50194010E940706F7013E
:10080000208360E970ED83E090E0A50194010E94EF
:100810000706D8012D933D934D935C93139726962D
:100820000FB6F894DEBF0FBECDBFDF91CF911F9101
:100830000F91FF90EF90DF90CF90BF90AF909F907F
:100840008F9008951F920F920FB60F9211242F933D
:100850003F934F935F936F937F938F939F93AF9348
:10086000BF93EF93FF938091820090918300A091BA
:100870008400B09185000196A11DB11D8093820076
:1008800090938300A0938400B093850040918E00E4
:1008900050918F006091900070919100841795079E
:1008A000A607B707A9F4E0918800F0918900309776
:1008B00079F00995109282001092830010928400C2
:1008C0001092850080919300811102C00E9448031C
:1008D000FF91EF91BF91AF919F918F917F916F9118
:1008E0005F914F913F912F910F900FBE0F901F90EE
:1008F00018951F920F920FB60F9211242F933F93CA
:100900004F935F936F937F938F939F93AF93BF9317
:10091000EF93FF9380917E0090917F00A0918000E3
:10092000B09181000196A11DB11D80937E0090932E
:100930007F00A0938000B093810040918A00509185
:100940008B0060918C0070918D0084179507A6072D
:10095000B707B1F4E0918600F0918700309781F0FD
:10096000099510927E0010927F00109280001092E4
:10097000810080919200811103C082E00E944803AF
:10098000FF91EF91BF91AF919F918F917F916F9167
:100990005F914F913F912F910F900FBE0F901F903D
:1009A00018950E94E5040C94CD050E94C60558F0E8
:1009B0000E94BF0540F029F45F3F29F00C94B60572
:1009C00051110C9401060C94BC050E94DE0568F3DD
:1009D0009923B1F3552391F3951B550BBB27AA27F8
:1009E00062177307840738F09F5F5F4F220F331F32
:1009F000441FAA1FA9F335D00E2E3AF0E0E832D0FA
:100A000091505040E695001CCAF72BD0FE2F29D0FC
:100A1000660F771F881FBB1F261737074807AB07CE
:100A2000B0E809F0BB0B802DBF01FF2793585F4F43
:100A30003AF09E3F510578F00C94B6050C940106EF
:100A40005F3FE4F3983ED4F3869577956795B79525
:100A5000F7959F5FC9F7880F911D9695879597F930
:100A60000895E1E0660F771F881FBB1F62177307A9
:100A70008407BA0720F0621B730B840BBA0BEE1FBE
:100A800088F7E09508950E944A056894B1110C9486
:100A9000010608950E94E60588F09F5798F0B92F47
:100AA0009927B751B0F0E1F0660F771F881F991FA3
:100AB0001AF0BA95C9F714C0B13091F00E9400063F
:100AC000B1E008950C940006672F782F8827B85F4F
:100AD00039F0B93FCCF3869577956795B395D9F7FB
:100AE0003EF490958095709561957F4F8F4F9F4F05
:100AF0000895E89409C097FB3EF490958095709511
:100B000061957F4F8F4F9F4F9923A9F0F92F96E959
:100B1000BB279395F695879577956795B795F111CE
:100B2000F8CFFAF4BB0F11F460FF1BC06F5F7F4F6B
:100B30008F4F9F4F16C0882311F096E911C077237D
:100B400021F09EE8872F762F05C0662371F096E886
:100B5000862F70E060E02AF09A95660F771F881F55
:100B6000DAF7880F9695879597F9089597F99F6713
:100B700080E870E060E008959FEF80EC0895002425
:100B80000A941616170618060906089500240A94F2
:100B900012161306140605060895092E0394000C78
:100BA00011F4882352F0BB0F40F4BF2B11F460FF07
:100BB00004C06F5F7F4F8F4F9F4F089557FD905830
:100BC000440F551F59F05F3F71F04795880F97FB11
:100BD000991F61F09F3F79F08795089512161306CB
:100BE0001406551FF2CF4695F1DF08C016161706FA
:100BF0001806991FF1CF869571056105089408952F
:100C0000E894BB2766277727CB0197F90895A1E2DF
:100C10001A2EAA1BBB1BFD010DC0AA1FBB1FEE1F76
:100C2000FF1FA217B307E407F50720F0A21BB30BC1
:100C3000E40BF50B661F771F881F991F1A9469F73D
:100C400060957095809590959B01AC01BD01CF0199
:100C50000895A29FB001B39FC001A39F700D811D95
:100C60001124911DB29F700D811D1124911D0895B5
:040C7000F894FFCF26
:100C74003B003800350032003A00370034003100C0
:0E0C8400463D00543D00443D002D005F000041
:00000001FF
